{
  "_format": "hh-sol-artifact-1",
  "contractName": "TokenICO",
  "sourceName": "contracts/TokenICO.sol",
  "abi": [
    {
      "inputs": [],
      "stateMutability": "nonpayable",
      "type": "constructor"
    },
    {
      "inputs": [],
      "name": "CannotRescueSaleToken",
      "type": "error"
    },
    {
      "inputs": [],
      "name": "EthTransferFailed",
      "type": "error"
    },
    {
      "inputs": [],
      "name": "InvalidAddress",
      "type": "error"
    },
    {
      "inputs": [],
      "name": "InvalidPrice",
      "type": "error"
    },
    {
      "inputs": [],
      "name": "NoEthSent",
      "type": "error"
    },
    {
      "inputs": [],
      "name": "NoTokenToRescue",
      "type": "error"
    },
    {
      "inputs": [],
      "name": "NoTokenToWithdraw",
      "type": "error"
    },
    {
      "inputs": [],
      "name": "OnlyOwner",
      "type": "error"
    },
    {
      "inputs": [],
      "name": "SaleTokenNotSet",
      "type": "error"
    },
    {
      "inputs": [],
      "name": "TokenTransferFailed",
      "type": "error"
    },
    {
      "inputs": [],
      "name": "UseTokenFunction",
      "type": "error"
    },
    {
      "anonymous": false,
      "inputs": [
        {
          "indexed": false,
          "internalType": "uint256",
          "name": "oldPrice",
          "type": "uint256"
        },
        {
          "indexed": false,
          "internalType": "uint256",
          "name": "newPrice",
          "type": "uint256"
        }
      ],
      "name": "PriceUpdated",
      "type": "event"
    },
    {
      "anonymous": false,
      "inputs": [
        {
          "indexed": true,
          "internalType": "address",
          "name": "token",
          "type": "address"
        }
      ],
      "name": "SaleTokenSet",
      "type": "event"
    },
    {
      "anonymous": false,
      "inputs": [
        {
          "indexed": true,
          "internalType": "address",
          "name": "buyer",
          "type": "address"
        },
        {
          "indexed": false,
          "internalType": "uint256",
          "name": "amountPaid",
          "type": "uint256"
        },
        {
          "indexed": false,
          "internalType": "uint256",
          "name": "tokensBought",
          "type": "uint256"
        }
      ],
      "name": "TokenPurchased",
      "type": "event"
    },
    {
      "inputs": [],
      "name": "buyToken",
      "outputs": [],
      "stateMutability": "payable",
      "type": "function"
    },
    {
      "inputs": [],
      "name": "ethPriceForToken",
      "outputs": [
        {
          "internalType": "uint256",
          "name": "",
          "type": "uint256"
        }
      ],
      "stateMutability": "view",
      "type": "function"
    },
    {
      "inputs": [],
      "name": "getContractInfo",
      "outputs": [
        {
          "internalType": "address",
          "name": "tokenAddress",
          "type": "address"
        },
        {
          "internalType": "string",
          "name": "tokenSymbol",
          "type": "string"
        },
        {
          "internalType": "uint8",
          "name": "tokenDecimals",
          "type": "uint8"
        },
        {
          "internalType": "uint256",
          "name": "tokenBalance",
          "type": "uint256"
        },
        {
          "internalType": "uint256",
          "name": "ethPrice",
          "type": "uint256"
        },
        {
          "internalType": "uint256",
          "name": "totalSold",
          "type": "uint256"
        }
      ],
      "stateMutability": "view",
      "type": "function"
    },
    {
      "inputs": [
        {
          "internalType": "address",
          "name": "tokenAddress",
          "type": "address"
        }
      ],
      "name": "rescueTokens",
      "outputs": [],
      "stateMutability": "nonpayable",
      "type": "function"
    },
    {
      "inputs": [],
      "name": "saleToken",
      "outputs": [
        {
          "internalType": "address",
          "name": "",
          "type": "address"
        }
      ],
      "stateMutability": "view",
      "type": "function"
    },
    {
      "inputs": [
        {
          "internalType": "address",
          "name": "_token",
          "type": "address"
        }
      ],
      "name": "setSaleToken",
      "outputs": [],
      "stateMutability": "nonpayable",
      "type": "function"
    },
    {
      "inputs": [],
      "name": "tokensSold",
      "outputs": [
        {
          "internalType": "uint256",
          "name": "",
          "type": "uint256"
        }
      ],
      "stateMutability": "view",
      "type": "function"
    },
    {
      "inputs": [
        {
          "internalType": "uint256",
          "name": "newPrice",
          "type": "uint256"
        }
      ],
      "name": "updatetokenPrice",
      "outputs": [],
      "stateMutability": "nonpayable",
      "type": "function"
    },
    {
      "inputs": [],
      "name": "withdrawAllTokens",
      "outputs": [],
      "stateMutability": "nonpayable",
      "type": "function"
    },
    {
      "stateMutability": "payable",
      "type": "receive"
    }
  ],
  "bytecode": "0x60a0806040523461004a5766038d7ea4c68000600155336080526109cb908161005082396080518181816101ae01528181610322015281816105ac0152818161064a01526107b90152f35b600080fdfe608060408181526004918236101561002b575b50361561001e57600080fd5b5163b67b8d2960e01b8152fd5b600090813560e01c908162ae3bf81461078b57508063280da6fa146106355780634643762614610594578063518ab2a8146105755780637cc1f867146103a5578063a29f481c146102f7578063a4821719146100e0578063c605af53146100c15763e985e367036100125790346100bd57816003193601126100bd57905490516001600160a01b039091168152602090f35b5080fd5b5090346100bd57816003193601126100bd576020906001549051908152f35b509190826003193601126102f35734156102e65782546001600160a01b031680156102d857815163313ce56760e01b81526020939084818381865afa90811561027b579060ff9187916102ab575b5016604d811161029857600a0a8034029034820403610298576001549081156102855704918260025401600255848451809263a9059cbb60e01b825281898161018f89338a840160209093929193604081019460018060a01b031681520152565b03925af190811561027b57869161024e575b50156102405784808080347f00000000000000000000000000000000000000000000000000000000000000005af13d1561023b573d6101df81610979565b906101ec8651928361090b565b815286863d92013e5b1561022d5750907f3ceffd410054fdaed44f598ff5c1fb450658778e2241892da4aa646979dee617918151933485528401523392a280f35b8251630db2c7f160e31b8152fd5b6101f5565b825163022e258160e11b8152fd5b61026e9150853d8711610274575b610266818361090b565b810190610943565b386101a1565b503d61025c565b84513d88823e3d90fd5b634e487b7160e01b875260128352602487fd5b634e487b7160e01b865260118252602486fd5b6102cb9150863d88116102d1575b6102c3818361090b565b810190610960565b3861012e565b503d6102b9565b505163a327f80560e01b8152fd5b5163717e6b7b60e01b8152fd5b8280fd5b5091346102f35760203660031901126102f35780356001600160a01b0381811693918490036103a1577f000000000000000000000000000000000000000000000000000000000000000016330361039457821561038757505081546001600160a01b031916811782557f3f8bb5f6e8ecfb5425a48c996d20089aff3396b3c168c13403c3fa3996f70a028280a280f35b5163e6c4247b60e01b8152fd5b51635fc483c560e01b8152fd5b8480fd5b509190346102f357826003193601126102f357825481516395d89b4160e01b81526001600160a01b039091169184828581865afa91821561056b5785926104ed575b5080519063313ce56760e01b825260209485838281885afa9283156104c45787936104ce575b508151906370a0823160e01b825230908201528581602481885afa9081156104c457879161048d575b5060e09596506001549160ff6002549461046b83519a8b998a5260c0818b015288519889918260c08d01528c8c0191016108e8565b16908601526060850152608084015260a0830152601f01601f19168101030190f35b90508581813d83116104bd575b6104a4818361090b565b810103126104b95760e0959650518695610436565b8680fd5b503d61049a565b82513d89823e3d90fd5b6104e6919350863d88116102d1576102c3818361090b565b913861040d565b9091503d8086833e6104ff818361090b565b8101906020818303126105675780519067ffffffffffffffff82116104b9570181601f8201121561056757805161053581610979565b926105428551948561090b565b818452602082840101116104b95761056091602080850191016108e8565b90386103e7565b8580fd5b81513d87823e3d90fd5b5090346100bd57816003193601126100bd576020906002549051908152f35b5091346102f35760203660031901126102f3578035907f00000000000000000000000000000000000000000000000000000000000000006001600160a01b0316330361062757811561061a5750907f945c1c4e99aa89f648fbfe3df471b916f719e16d960fcec0737d4d56bd69683891600154908060015582519182526020820152a180f35b825162bfc92160e01b8152fd5b8251635fc483c560e01b8152fd5b509190346102f357826003193601126102f3577f00000000000000000000000000000000000000000000000000000000000000006001600160a01b03808216330361077c578454168251906370a0823160e01b825230858301526020928383602481855afa928315610772578793610743575b50821561073357845163a9059cbb60e01b81526001600160a01b039091168682019081526020810193909352918391839182908990829060400103925af191821561072957859261070c575b5050156106ff578280f35b5163022e258160e11b8152fd5b6107229250803d1061027457610266818361090b565b38806106f4565b83513d87823e3d90fd5b8451631888cc1360e21b81528690fd5b9092508381813d831161076b575b61075b818361090b565b810103126104b9575191386106a8565b503d610751565b85513d89823e3d90fd5b505051635fc483c560e01b8152fd5b84848492346108e457602090816003193601126103a15783356001600160a01b03818116918290036104b9577f00000000000000000000000000000000000000000000000000000000000000009281841633036108d6575086541681146108c65783516370a0823160e01b81523086820152918383602481855afa928315610772578793610897575b50821561088757845163a9059cbb60e01b81526001600160a01b039091168682019081526020810193909352918391839182908990829060400103925af191821561072957859261086a575050156106ff578280f35b6108809250803d1061027457610266818361090b565b84806106f4565b8451634ddcfc7560e01b81528690fd5b9092508381813d83116108bf575b6108af818361090b565b810103126104b957519187610814565b503d6108a5565b5050505163ad2b859d60e01b8152fd5b635fc483c560e01b81528690fd5b8380fd5b60005b8381106108fb5750506000910152565b81810151838201526020016108eb565b90601f8019910116810190811067ffffffffffffffff82111761092d57604052565b634e487b7160e01b600052604160045260246000fd5b9081602091031261095b5751801515810361095b5790565b600080fd5b9081602091031261095b575160ff8116810361095b5790565b67ffffffffffffffff811161092d57601f01601f19166020019056fea2646970667358221220c00815e227c4adfdede63dfe6e6ae51c912de24c73ed7ec27f87a208cc93ce2264736f6c63430008130033",
  "linkReferences": {},
  "deployedLinkReferences": {}
}